:020000040800F2
:1000000000500020850A0008B5090008BD09000855
:10001000C5090008CD090008D50900080000000046
:10002000000000000000000000000000DD090008E2
:10003000E909000800000000F5090008010A0008AD
:10004000CD0A0008CD0A0008CD0A0008CD0A000834
:10005000CD0A0008CD0A0008CD0A0008CD0A000824
:10006000CD0A0008CD0A0008CD0A0008CD0A000814
:10007000CD0A0008CD0A0008CD0A0008CD0A000804
:10008000CD0A0008CD0A0008CD0A0008CD0A0008F4
:10009000CD0A0008CD0A0008CD0A0008CD0A0008E4
:1000A000CD0A0008CD0A0008CD0A0008CD0A0008D4
:1000B000CD0A0008CD0A0008CD0A0008CD0A0008C4
:1000C000CD0A0008CD0A0008CD0A0008CD0A0008B4
:1000D000CD0A0008CD0A0008CD0A0008CD0A0008A4
:1000E000CD0A0008CD0A0008CD0A00080000000073
:1000F0000000000000000000000000000000000000
:0C01000000000000000000005FF808F1A3
:10010C0010B5054C237833B9044B13B10448AFF345
:10011C0000800123237010BD5C0000200000000053
:10012C00F830000808B5034B1BB103490348AFF383
:10013C00008008BD0000000060000020F8300008BE
:10014C00B0B58AB004AF00F0BDFC00F09DF800F033
:10015C0017F900F0DFF800F051FA002002F084F8F3
:10016C00002002F001F801220121002002F03CF8ED
:10017C003D49002002F0EAFA01220221002002F09F
:10018C0033F83A49002002F0E1FA4FF4FA6000F03B
:10019C00FBFC3B1D00221A605A609A60DA601A61FF
:1001AC003349262000F021FB03461A46314B1A70C6
:1001BC002F4800F03FFB03461A462E4B1A702D4B6E
:1001CC001B78002B2DD12A4B1B781C46284B5B78B7
:1001DC001D46274B9B781A46254BDB781946244B3A
:1001EC001B79381D0293019100922B46224622491D
:1001FC0002F0CCFA002001F0B7FF0122012100200F
:10020C0001F0F2FF1D49002002F0A0FA01220221A8
:10021C00002001F0E9FF3B1D1946002002F096FA80
:10022C001CE0144B1B78022B0CD1002001F09CFF1E
:10023C0001220121002001F0D7FF1149002002F01A
:10024C0085FA0BE0002001F08FFF01220121002034
:10025C0001F0CAFF0B49002002F078FA40F2DC50A2
:10026C0000F092FC9CE700BF103100081C31000824
:10027C00D4000020D00000202C31000848310008A8
:10028C00543100085831000880B590B000AF07F128
:10029C00180328220021184602F09AFA3B1D00226E
:1002AC001A605A609A60DA601A610123BB614FF4DC
:1002BC008033FB6100233B620123BB6202237B631F
:1002CC004FF48033BB634FF4E013FB6307F1180367
:1002DC00184600F0FDFE0346002B01D000F0D4F8C8
:1002EC000F237B600223BB600023FB604FF4806311
:1002FC003B6100237B613B1D0221184601F06AF92A
:10030C000346002B01D000F0BFF800BF4037BD46BC
:10031C0080BD000080B500AF174B184A1A60164B11
:10032C004FF482725A60144B00229A60124B0022D6
:10033C00DA60114B00221A610F4B00225A610E4BEE
:10034C004FF400729A610C4B1022DA610A4B0022B6
:10035C001A62094B00225A62074B00229A62064B22
:10036C000A22DA62044801F091FA0346002B01D00C
:10037C0000F08AF800BF80BD7800002000300140FA
:10038C0080B588B000AF07F1100300221A605A60E4
:10039C009A60DA60384B9B69374A43F010039361DB
:1003AC00354B9B6903F01003FB60FB68324B9B6978
:1003BC00314A43F0200393612F4B9B6903F02003D8
:1003CC00BB60BB682C4B9B692B4A43F004039361C5
:1003DC00294B9B6903F004037B607B68264B9B696C
:1003EC00254A43F008039361234B9B6903F00803F0
:1003FC003B603B6800224FF40051204800F050FE57
:10040C00002216211E4800F04BFE002240F68341CC
:10041C001C4800F045FE4FF400533B6101237B6107
:10042C000023BB610223FB6107F11003194613483B
:10043C0000F0B2FC16233B6101237B610023BB61FE
:10044C000223FB6107F1100319460D4800F0A4FCD0
:10045C0040F683433B6101237B610023BB61022394
:10046C00FB6107F110031946064800F095FC00BF2C
:10047C002037BD4680BD00BF001002400010014077
:10048C0000080140000C014080B400AF72B600BF00
:10049C0000BFFDE780B586B002AF0346FB7107F1E4
:1004AC000F02F91D642300930123044801F072FA32
:1004BC00FB7B18461037BD4680BD00BF780000207E
:1004CC0080B582B000AF03460A46FB711346BB7180
:1004DC00002210210C4800F0E3FDFB795B00DBB23D
:1004EC0003F07E03DBB21846FFF7D4FFBB79184646
:1004FC00FFF7D0FF01221021034800F0D1FD00BF0F
:10050C000837BD4680BD00BF0008014080B584B0EF
:10051C0000AF0346FB7100221021104800F0C0FD13
:10052C0097F907305B005BB203F07E035BB263F0BC
:10053C007F035BB2DBB21846FFF7ACFF0020FFF77E
:10054C00A9FF0346FB7301221021044800F0A8FD0B
:10055C00FB7B18461037BD4680BD00BF000801402C
:10056C0080B584B000AF03460A46FB711346BB71DD
:10057C00FB791846FFF7CAFF0346FB73FA7BBB797E
:10058C001343DAB2FB7911461846FFF799FF00BF07
:10059C001037BD4680BD80B584B000AF03460A4617
:1005AC00FB711346BB71FB791846FFF7AFFF03468F
:1005BC00FB7397F90630DB435AB297F90F301340AF
:1005CC005BB2DAB2FB7911461846FFF779FF00BF30
:1005DC001037BD4680BD80B500AF1420FFF796FFE5
:1005EC0003211420FFF7BCFF00BF80BD80B500AF16
:1005FC000F210120FFF764FF00BF80BD80B500AF65
:10060C0001221021124800F04BFD012280211148DB
:10061C0000F046FDFFF7EAFF8D212A20FFF750FF7F
:10062C003E212B20FFF74CFF1E212D20FFF748FF0A
:10063C0000212C20FFF744FF40211520FFF740FF3D
:10064C003D211120FFF73CFFFFF7C5FF00BF80BD28
:10065C0000080140000C014090B589B000AFB960B2
:10066C007B600346FB731346BB730223FB770023AB
:10067C00BB7700237B77FB7B0C2B06D00E2B09D191
:10068C001223BB7710237B7705E07723BB773023CE
:10069C007B7700E000BFBB7F63F07F03DBB21946C2
:1006AC000220FFF70DFF80210420FFF774FF80214B
:1006BC000A20FFF755FF00210120FFF701FF00235F
:1006CC00BB610AE0BA68BB6913441B781946092060
:1006DC00FFF7F6FEBB690133BB61BB7BBA699A427B
:1006EC00F0D3FB7B19460120FFF7EAFEFB7B0C2BBA
:1006FC0003D180210D20FFF733FF4FF4FA63BB6168
:10070C000420FFF703FF03463B77BB69013BBB614A
:10071C00BB69002B0AD03B7F03F00103002B05D1F2
:10072C003A7F7B7F1340DBB2002BE9D080210D2078
:10073C00FFF731FFBB69002B52D00620FFF7E6FE16
:10074C00034603F01B03002B48D10023FB773A7FB1
:10075C00BB7F1340DBB203F00103002B01D001235C
:10076C00FB77FB7B0C2B3BD10A20FFF7CFFE03461C
:10077C003B770C20FFF7CAFE034603F00703FB751B
:10078C00FB7D002B08D03B7F013BDA00FB7D134443
:10079C001A463B6B1A6004E03B7FDB001A463B6B4E
:1007AC001A603B7F002B01D101233B773B7F102B41
:1007BC0001D910233B770023BB610AE07A68BB693F
:1007CC00D4180920FFF7A2FE03462370BB6901333E
:1007DC00BB613B7FBA699A42F0D301E00223FB77FD
:1007EC00FB7F18462437BD4690BD80B586B002AF5E
:1007FC0003463960FB7107210D20FFF761FE3B6852
:10080C00FA791A7007F1080300933B6801223968E2
:10081C000C20FFF721FF0346FB73FB7B002B02D15F
:10082C00BB68102B01D00223FB73FB7B18461037DF
:10083C00BD4680BD80B586B002AF786000237B7367
:10084C0000210D20FFF73CFE7B6893221A707B6819
:10085C00013320221A7007F1080300937B680222EF
:10086C0079680C20FFF7F8FE0346FB73FB7B002B2B
:10087C0018D10023BB7309E0BB7B7A6813441A7848
:10088C007B7B53407B73BB7B0133BB73BB7B032BE9
:10089C00F2D9BB7B7A6813441B787A7B9A4201D0DD
:1008AC000223FB73FB7B18461037BD4680BD00004E
:1008BC0080B485B000AF154B9B69144A43F001031B
:1008CC009361124B9B6903F00103BB60BB680F4B38
:1008DC00DB690E4A43F08053D3610C4BDB6903F0A8
:1008EC0080537B607B680A4B5B68FB60FB6823F082
:1008FC00E063FB60FB6843F08063FB60044AFB68C9
:10090C00536000BF1437BD4680BC704700100240D6
:10091C000000014080B588B000AF786007F110038B
:10092C0000221A605A609A60DA607B681B681B4A66
:10093C0093422FD11A4B9B69194A43F4805393610C
:10094C00174B9B6903F48053FB60FB68144B9B694A
:10095C00134A43F004039361114B9B6903F00403A6
:10096C00BB60BB68A0233B6102237B610323FB615B
:10097C0007F1100319460B4800F00EFA40233B61B7
:10098C0000237B610023BB6107F110031946054866
:10099C0000F002FA00BF2037BD4680BD0030014098
:1009AC00001002400008014080B400AF00BFFDE71A
:1009BC0080B400AF00BFFDE780B400AF00BFFDE71F
:1009CC0080B400AF00BFFDE780B400AF00BFFDE70F
:1009DC0080B400AF00BFBD4680BC704780B400AF90
:1009EC0000BFBD4680BC704780B400AF00BFBD46A1
:1009FC0080BC704780B500AF00F0AAF800BF80BD86
:100A0C0080B586B000AF7860144A154BD31A7B6161
:100A1C007B693B61134B1B68002B02D1114B124AB3
:100A2C001A60104B1A687B6813443A699A4207D2D1
:100A3C0001F0D6FE03460C221A604FF0FF3309E09A
:100A4C00084B1B68FB60074B1A687B681344054A0C
:100A5C001360FB6818461837BD4680BD0050002057
:100A6C0000040000E40000203802002080B400AF35
:100A7C0000BFBD4680BC7047FFF7F8FF0B480C4920
:100A8C000C4A002302E0D458C4500433C4188C42DE
:100A9C00F9D3094A094C002301E013600432A24245
:100AAC00FBD301F0A3FEFFF74BFB704700000020C7
:100ABC005C000020FC3100085C00002034020020A7
:100ACC00FEE7000080B500AF084B1B68074A43F0F7
:100ADC0010031360032000F02BF90F2000F008F82E
:100AEC00FFF7E6FE0023184680BD00BF0020024041
:100AFC0080B582B000AF7860124B1A68124B1B782D
:100B0C0019464FF47A73B3FBF1F3B2FBF3F31846C7
:100B1C0000F035F90346002B01D001230EE07B6871
:100B2C000F2B0AD8002279684FF0FF3000F00BF938
:100B3C00064A7B681360002300E00123184608373F
:100B4C00BD4680BD000000200800002004000020ED
:100B5C0080B400AF054B1B781A46054B1B68134439
:100B6C00034A136000BFBD4680BC704708000020DC
:100B7C00E800002080B400AF024B1B681846BD464D
:100B8C0080BC7047E800002080B584B000AF78606E
:100B9C00FFF7F0FFB8607B68FB60FB68B3F1FF3FC9
:100BAC0005D00A4B1B781A46FB681344FB6000BF48
:100BBC00FFF7E0FF0246BB68D31AFA689A42F7D8EF
:100BCC0000BF00BF1037BD4680BD00BF080000202D
:100BDC0080B485B000AF78607B6803F00703FB60DE
:100BEC000C4BDB68BB60BA684FF6FF031340BB606D
:100BFC00FB681A02BB68134343F0BF6343F4003332
:100C0C00BB60044ABB68D36000BF1437BD4680BCD0
:100C1C00704700BF00ED00E080B400AF044BDB6810
:100C2C001B0A03F007031846BD4680BC704700BF83
:100C3C0000ED00E080B483B000AF03463960FB7177
:100C4C0097F90730002B0ADB3B68DAB20C4997F9AD
:100C5C0007301201D2B20B4483F800230AE03B6840
:100C6C00DAB20849FB7903F00F03043B1201D2B24C
:100C7C000B441A7600BF0C37BD4680BC704700BFD2
:100C8C0000E100E000ED00E080B489B000AFF86056
:100C9C00B9607A60FB6803F00703FB61FB69C3F181
:100CAC000703042B28BF0423BB61FB690433062B09
:100CBC0002D9FB69033B00E000237B614FF0FF325C
:100CCC00BB6902FA03F3DA43BB681A407B699A40AA
:100CDC004FF0FF317B6901FA03F3D9437B680B407A
:100CEC00134318462437BD4680BC704780B582B08C
:100CFC0000AF78607B68013BB3F1807F01D30123A7
:100D0C000FE00A4A7B68013B53600F214FF0FF3024
:100D1C00FFF790FF054B00229A60044B07221A60E4
:100D2C00002318460837BD4680BD00BF10E000E028
:100D3C0080B582B000AF78607868FFF749FF00BFDC
:100D4C000837BD4680BD80B586B000AF0346B9609C
:100D5C007A60FB7300237B61FFF75EFF78617A6832
:100D6C00B9687869FFF790FF024697F90F30114682
:100D7C001846FFF75FFF00BF1837BD4680BD80B532
:100D8C0082B000AF78607868FFF7B0FF0346184672
:100D9C000837BD4680BD000080B48BB000AF7860D2
:100DAC00396000237B6200233B6269E101227B6A8C
:100DBC0002FA03F3FB613B681B68FA691340BB61E1
:100DCC00BA69FB699A4240F058813B685B689A4A61
:100DDC0093425ED0984A934275D8984A934258D021
:100DEC00964A93426FD8964A934252D0944A934271
:100DFC0069D8944A93424CD0924A934263D8924A0F
:100E0C00934246D0904A93425DD8122B2AD8122B8B
:100E1C0059D801A252F823F09F0E0008790E000851
:100E2C008B0E0008CD0E0008D30E0008D30E000860
:100E3C00D30E0008D30E0008D30E0008D30E000802
:100E4C00D30E0008D30E0008D30E0008D30E0008F2
:100E5C00D30E0008D30E0008D30E0008810E000834
:100E6C00950E0008794A934213D02CE03B68DB685E
:100E7C003B6229E03B68DB6804333B6224E03B685F
:100E8C00DB6808333B621FE03B68DB680C333B627A
:100E9C001AE03B689B68002B02D104233B6213E0F1
:100EAC003B689B68012B05D108233B627B68FA6980
:100EBC001A6109E008233B627B68FA695A6103E016
:100ECC0000233B6200E000BFBB69FF2B01D87B68AD
:100EDC0001E07B6804337B61BB69FF2B02D87B6A22
:100EEC009B0002E07B6A083B9B003B617B691A68B4
:100EFC000F213B6901FA03F3DB431A40396A3B6962
:100F0C0001FA03F31A437B691A603B685B6803F0D0
:100F1C008053002B00F0B1804D4B9B694C4A43F041
:100F2C00010393614A4B9B6903F00103BB60BB68EF
:100F3C00484A7B6A9B08023352F82330FB607B6A79
:100F4C0003F003039B000F2202FA03F3DB43FA685E
:100F5C001340FB607B68404A934213D07B683F4A46
:100F6C0093420DD07B683E4A934207D07B683D4A42
:100F7C00934201D1032306E0042304E0022302E0A0
:100F8C00012300E000237A6A02F0030292009340EE
:100F9C00FA681343FB602F497B6A9B080233FA689B
:100FAC0041F823203B685B6803F48013002B06D0C8
:100FBC002D4B9A682C49BB6913438B6006E02A4B76
:100FCC009A68BB69DB43284913408B603B685B68BC
:100FDC0003F40013002B06D0234BDA682249BB69BB
:100FEC001343CB6006E0204BDA68BB69DB431E4938
:100FFC001340CB603B685B6803F40033002B06D0D6
:10100C00194B5A681849BB6913434B6006E0164BE1
:10101C005A68BB69DB43144913404B603B685B68FF
:10102C0003F48033002B21D00F4B1A680E49BB6997
:10103C0013430B6021E000BF0000321000003110A0
:10104C0000002210000021100000121000001110EE
:10105C00001002400000014000080140000C01405B
:10106C000010014000140140000401400B4B1A68B1
:10107C00BB69DB43094913400B607B6A01337B621C
:10108C003B681A687B6A22FA03F3002B7FF48EAE5E
:10109C0000BF00BF2C37BD4680BC70470004014028
:1010AC0080B483B000AF78600B467B8013467B70B6
:1010BC007B78002B03D07A887B681A6103E07B88ED
:1010CC001A047B681A6100BF0C37BD4680BC7047A0
:1010DC0080B586B000AF78607B68002B01D101230E
:1010EC0072E27B681B6803F00103002B00F0878021
:1010FC00924B5B6803F00C03042B0CD08F4B5B689A
:10110C0003F00C03082B12D18C4B5B6803F4803377
:10111C00B3F5803F0BD1894B1B6803F40033002BD4
:10112C006CD07B685B68002B68D101234CE27B6838
:10113C005B68B3F5803F06D1804B1B687F4A43F454
:10114C00803313602EE07B685B68002B0CD17B4BEB
:10115C001B687A4A23F480331360784B1B68774AF8
:10116C0023F4802313601DE07B685B68B3F5A02F2C
:10117C000CD1724B1B68714A43F4802313606F4B84
:10118C001B686E4A43F4803313600BE06B4B1B6897
:10119C006A4A23F480331360684B1B68674A23F454
:1011AC00802313607B685B68002B13D0FFF7E2FC95
:1011BC00386108E0FFF7DEFC02463B69D31A642B6A
:1011CC0001D9032300E25D4B1B6803F40033002BB1
:1011DC00F0D014E0FFF7CEFC386108E0FFF7CAFC52
:1011EC0002463B69D31A642B01D90323ECE1534B20
:1011FC001B6803F40033002BF0D100E000BF7B68C8
:10120C001B6803F00203002B63D04C4B5B6803F0AC
:10121C000C03002B0BD0494B5B6803F00C03082B21
:10122C001CD1464B5B6803F48033002B16D1434B27
:10123C001B6803F00203002B05D07B681B69012B94
:10124C0001D00123C0E13D4B1B6823F0F8027B6801
:10125C005B69DB00394913430B603AE07B681B691F
:10126C00002B20D0364B01221A60FFF783FC38612B
:10127C0008E0FFF77FFC02463B69D31A022B01D929
:10128C000323A1E12D4B1B6803F00203002BF0D0CC
:10129C002A4B1B6823F0F8027B685B69DB0027494B
:1012AC0013430B6015E0264B00221A60FFF762FC1B
:1012BC00386108E0FFF75EFC02463B69D31A022B4B
:1012CC0001D9032380E11D4B1B6803F00203002BA3
:1012DC00F0D17B681B6803F00803002B3AD07B68C5
:1012EC009B69002B19D0174B01221A60FFF742FCA7
:1012FC00386108E0FFF73EFC02463B69D31A022B2B
:10130C0001D9032360E10D4B5B6A03F00203002B50
:10131C00F0D0012000F09CFA1CE00A4B00221A606D
:10132C00FFF728FC38610FE0FFF724FC02463B690D
:10133C00D31A022B08D9032346E100BF0010024048
:10134C000000424280044242924B5B6A03F002036B
:10135C00002BE9D17B681B6803F00403002B00F021
:10136C00A6800023FB758B4BDB6903F08053002BAD
:10137C000DD1884BDB69874A43F08053D361854B91
:10138C00DB6903F08053BB60BB680123FB75824BA8
:10139C001B6803F48073002B18D17F4B1B687E4AAB
:1013AC0043F480731360FFF7E5FB386108E0FFF747
:1013BC00E1FB02463B69D31A642B01D9032303E1F9
:1013CC00754B1B6803F48073002BF0D07B68DB68D3
:1013DC00012B06D16F4B1B6A6E4A43F0010313625B
:1013EC002DE07B68DB68002B0CD16A4B1B6A694AC9
:1013FC0023F001031362674B1B6A664A23F0040354
:10140C0013621CE07B68DB68052B0CD1614B1B6AFB
:10141C00604A43F0040313625E4B1B6A5D4A43F05F
:10142C00010313620BE05B4B1B6A5A4A23F0010366
:10143C001362584B1B6A574A23F0040313627B68F0
:10144C00DB68002B15D0FFF795FB38610AE0FFF73E
:10145C0091FB02463B69D31A41F28832934201D97F
:10146C000323B1E04B4B1B6A03F00203002BEED0BD
:10147C0014E0FFF77FFB38610AE0FFF77BFB0246C5
:10148C003B69D31A41F28832934201D903239BE082
:10149C00404B1B6A03F00203002BEED1FB7D012BAA
:1014AC0005D13C4BDB693B4A23F08053D3617B680D
:1014BC00DB69002B00F08780364B5B6803F00C0374
:1014CC00082B61D07B68DB69022B46D1334B0022A1
:1014DC001A60FFF74FFB386108E0FFF74BFB024641
:1014EC003B69D31A022B01D903236DE0294B1B68EE
:1014FC0003F00073002BF0D17B681B6AB3F5803FBF
:10150C0008D1244B5B6823F400327B689B6821492B
:10151C0013434B601F4B5B6823F474127B68196A8E
:10152C007B685B6A0B431B4913434B601B4B0122CB
:10153C001A60FFF71FFB386108E0FFF71BFB024640
:10154C003B69D31A022B01D903233DE0114B1B68D5
:10155C0003F00073002BF0D035E0104B00221A6022
:10156C00FFF708FB386108E0FFF704FB02463B6914
:10157C00D31A022B01D9032326E0064B1B6803F078
:10158C000073002BF0D11EE07B68DB69012B07D1C7
:10159C00012319E00010024000700040600042423C
:1015AC000B4B5B68FB60FB6803F480327B681B6A47
:1015BC009A4206D1FB6803F470127B685B6A9A420C
:1015CC0001D0012300E0002318461837BD4680BD2A
:1015DC000010024080B584B000AF786039607B6841
:1015EC00002B01D10123D0E06A4B1B6803F00703E9
:1015FC003A689A4210D9674B1B6823F00702654979
:10160C003B6813430B60634B1B6803F007033A689A
:10161C009A4201D00123B8E07B681B6803F00203F7
:10162C00002B20D07B681B6803F00403002B05D033
:10163C00594B5B68584A43F4E06353607B681B6802
:10164C0003F00803002B05D0534B5B68524A43F45C
:10165C0060535360504B5B6823F0F0027B689B68CF
:10166C004D4913434B607B681B6803F00103002B4F
:10167C0040D07B685B68012B07D1474B1B6803F498
:10168C000033002B15D101237FE07B685B68022BB4
:10169C0007D1414B1B6803F00073002B09D10123C8
:1016AC0073E03D4B1B6803F00203002B01D10123B7
:1016BC006BE0394B5B6823F003027B685B6836494F
:1016CC0013434B60FFF756FAF8600AE0FFF752FA43
:1016DC000246FB68D31A41F28832934201D90323A4
:1016EC0053E02D4B5B6803F00C027B685B689B003E
:1016FC009A42EBD1274B1B6803F007033A689A42D6
:10170C0010D2244B1B6823F0070222493B68134379
:10171C000B60204B1B6803F007033A689A4201D018
:10172C00012332E07B681B6803F00403002B08D014
:10173C00194B5B6823F4E0627B68DB681649134342
:10174C004B607B681B6803F00803002B09D0124B1D
:10175C005B6823F460527B681B69DB000E49134302
:10176C004B6000F021F802460B4B5B681B0903F041
:10177C000F030A49CB5C22FA03F3094A1360094BA5
:10178C001B681846FFF7B4F9002318461037BD46FE
:10179C0080BD00BF002002400010024068310008EC
:1017AC00000000200400002080B487B000AF0023AC
:1017BC00FB600023BB6000237B6100237B60002364
:1017CC003B611E4B5B68FB60FB6803F00C03042B56
:1017DC0002D0082B03D027E0194B3B6127E0FB68B4
:1017EC009B0C03F00F03174AD35C7B60FB6803F47C
:1017FC008033002B10D0114B5B685B0C03F00103A2
:10180C00114AD35CBB607B680D4A03FB02F2BB68D8
:10181C00B2FBF3F37B6104E07B680C4A02FB03F33D
:10182C007B617B693B6102E0054B3B6100BF3B691F
:10183C0018461C37BD4680BC704700BF00100240E4
:10184C0000127A00783100088831000800093D0048
:10185C0080B485B000AF78600A4B1B680A4AA2FBC3
:10186C0003235B0A7A6802FB03F3FB6000BFFB688F
:10187C005A1EFA60002BF9D100BF00BF1437BD46C9
:10188C0080BC704700000020D34D621080B582B040
:10189C0000AF78607B68002B01D1012376E07B6878
:1018AC005B6A002B08D17B685B68B3F5827F09D03B
:1018BC007B680022DA6105E07B6800221A617B6894
:1018CC0000225A617B6800229A627B6893F851303F
:1018DC00DBB2002B06D17B68002283F8502078689D
:1018EC00FFF718F87B68022283F851207B681B688D
:1018FC001A687B681B6822F040021A607B685B6880
:10190C0003F482727B689B6803F404431A437B687C
:10191C00DB6803F400631A437B681B6903F0020362
:10192C001A437B685B6903F001031A437B689B696C
:10193C0003F400731A437B68DB6903F038031A4322
:10194C007B681B6A03F0800342EA03017B689B6A95
:10195C0003F400527B681B680A431A607B689B691E
:10196C001A0C7B681B6802F004025A607B681B68C7
:10197C00DA697B681B6822F40062DA617B680022FA
:10198C005A657B68012283F85120002318460837DA
:10199C00BD4680BD80B58AB000AFF860B9607A6092
:1019AC007B8001237B62FFF7E5F83862FB6893F8D4
:1019BC005130FB77FB685B68BB617B88FB82FB7FEC
:1019CC00012B0CD0BB69B3F5827F06D1FB689B68F9
:1019DC00002B02D1FB7F042B01D002237FE1BB68DB
:1019EC00002B05D07B68002B02D07B88002B01D10B
:1019FC00012374E1FB6893F85030012B01D10223D1
:101A0C006DE1FB68012283F85020FB6893F851309C
:101A1C00DBB2042B03D0FB68052283F85120FB6852
:101A2C0000225A65FB687A689A63FB687A88DA87C1
:101A3C00FB687A889A87FB68BA681A63FB687A88AD
:101A4C00DA86FB687A889A86FB6800221A64FB683F
:101A5C0000225A64FB681B681B6803F04003402B90
:101A6C0007D0FB681B681A68FB681B6842F04002D1
:101A7C001A60FB68DB68B3F5006F7ED1FB685B68AE
:101A8C00002B02D0FB8A012B6CD1FB681B6B1A88D4
:101A9C00FB681B68DA60FB681B6B9A1CFB681A639B
:101AAC00FB68DB8E9BB2013B9AB2FB68DA8659E08D
:101ABC00FB681B689B6803F00203022B1BD1FB68BD
:101ACC00DB8E9BB2002B16D07B6A012B13D1FB68EB
:101ADC001B6B1A88FB681B68DA60FB681B6B9A1C13
:101AEC00FB681A63FB68DB8E9BB2013B9AB2FB6806
:101AFC00DA8600237B62FB681B689B6803F001039A
:101B0C00012B19D1FB68DB8F9BB2002B14D0FB6827
:101B1C001B68DA68FB689B6B92B21A80FB689B6B44
:101B2C009A1CFB689A63FB68DB8F9BB2013B9AB2F1
:101B3C00FB68DA8701237B62FFF71CF802463B6ADD
:101B4C00D31A3A6B9A420DD83B6BB3F1FF3F09D0D5
:101B5C00FB68012283F85120FB68002283F8502097
:101B6C000323BCE0FB68DB8E9BB2002BA0D1FB688F
:101B7C00DB8F9BB2002B9BD182E0FB685B68002B58
:101B8C0002D0FB8A012B71D1FB681A6BFB681B68B6
:101B9C000C3312781A70FB681B6B5A1CFB681A63A7
:101BAC00FB68DB8E9BB2013B9AB2FB68DA865DE088
:101BBC00FB681B689B6803F00203022B1CD1FB68BB
:101BCC00DB8E9BB2002B17D07B6A012B14D1FB68E8
:101BDC001A6BFB681B680C3312781A70FB681B6B52
:101BEC005A1CFB681A63FB68DB8E9BB2013B9AB2F2
:101BFC00FB68DA8600237B62FB681B689B6803F03A
:101C0C000103012B19D1FB68DB8F9BB2002B14D085
:101C1C00FB681B68DA68FB689B6BD2B21A70FB68B6
:101C2C009B6B5A1CFB689A63FB68DB8F9BB2013B76
:101C3C009AB2FB68DA8701237B62FEF79BFF0246B0
:101C4C003B6AD31A3A6B9A4203D83B6BB3F1FF3F12
:101C5C0002D13B6B002B09D1FB68012283F8512088
:101C6C00FB68002283F85020032338E0FB68DB8EEE
:101C7C009BB2002B9CD1FB68DB8F9BB2002B97D1C6
:101C8C003A6A396BF86800F0B7F80346002B08D0B5
:101C9C00FB6820225A65FB68002283F85020012340
:101CAC001DE0FB689B68002B0AD100233B61FB689D
:101CBC001B68DB683B61FB681B689B683B613B698D
:101CCC00FB68012283F85120FB68002283F8502026
:101CDC00FB685B6D002B01D0012300E0002318464C
:101CEC002837BD4680BD000080B588B000AFF860D5
:101CFC00B9603B601346FB71FEF73CFF0246BB6AC2
:101D0C009B1A3A681344FB61FEF734FFB861394BF8
:101D1C001B685B011B0DFA6902FB03F37B6154E04A
:101D2C003B68B3F1FF3F50D0FEF724FF0246BB697E
:101D3C00D31AFA699A4202D9FB69002B3DD1FB6890
:101D4C001B685A68FB681B6822F0E0025A60FB684B
:101D5C005B68B3F5827F11D1FB689B68B3F5004FCC
:101D6C0004D0FB689B68B3F5806F07D1FB681B68D8
:101D7C001A68FB681B6822F040021A60FB689B6AB9
:101D8C00B3F5005F0FD1FB681B681A68FB681B6812
:101D9C0022F400521A60FB681B681A68FB681B6807
:101DAC0042F400521A60FB68012283F85120FB6850
:101DBC00002283F85020032317E07B69002B01D10C
:101DCC000023FB617B69013B7B61FB681B689A68A4
:101DDC00BB681340BA689A420CBF01230023DBB2E4
:101DEC001A46FB799A429BD1002318462037BD46F0
:101DFC0080BD00BF0000002080B586B002AFF86047
:101E0C00B9607A607B680093BB6801220221F86894
:101E1C00FFF76AFF0346002B07D0FB685B6D43F0AE
:101E2C002002FB685A65032313E07B680093BB68B0
:101E3C0000228021F868FFF757FF0346002B07D0DC
:101E4C00FB685B6D43F02002FB685A65032300E0DE
:101E5C00002318461037BD4680BD000080B582B007
:101E6C0000AF03460A46FB711346BB71BB7903F006
:101E7C000103002B14D0FB795A4A342101FB03F3E4
:101E8C00134404331868FB79564A342101FB03F3DD
:101E9C00134408331B8801221946FFF701F913E09C
:101EAC00FB79504A342101FB03F3134404331868C3
:101EBC00FB794C4A342101FB03F3134408331B8890
:101ECC0000221946FFF7ECF8BB7903F00203002B54
:101EDC0014D0FB79434A342101FB03F313440C3334
:101EEC001868FB793F4A342101FB03F31344103388
:101EFC001B8801221946FFF7D3F813E0FB79394A06
:101F0C00342101FB03F313440C331868FB79354A75
:101F1C00342101FB03F3134410331B8800221946B0
:101F2C00FFF7BEF8BB7903F00403002B14D0FB7948
:101F3C002C4A342101FB03F3134414331868FB7946
:101F4C00284A342101FB03F3134418331B88012264
:101F5C001946FFF7A5F813E0FB79224A342101FB5F
:101F6C0003F3134414331868FB791E4A342101FB24
:101F7C0003F3134418331B8800221946FFF790F81B
:101F8C00BB7903F00803002B14D0FB79154A3421DC
:101F9C0001FB03F313441C331868FB79114A3421F9
:101FAC0001FB03F3134420331B8801221946FFF76E
:101FBC0077F813E0FB790B4A342101FB03F313444C
:101FCC001C331868FB79074A342101FB03F31344D3
:101FDC0020331B8800221946FFF762F800BF083730
:101FEC00BD4680BD8C31000880B588B000AF03467B
:101FFC000A46FB711346BB71FB79574A342101FB2E
:10200C0003F313442C331868FB79534A342101FB36
:10201C0003F3134430331B8800221946FFF740F8B2
:10202C00BA79FB7911461846FFF718FFFB794A4A33
:10203C00342101FB03F3134424331868FB79464A1B
:10204C00342101FB03F3134428331B880022194667
:10205C00FFF726F8414B9B68FB61414B1B68414ADB
:10206C00A2FB03239A0C13469B001A443C4B1B689F
:10207C003C49A1FB03139B0C5B08D31ABB61374B88
:10208C009B68FA69D31ABA699A42F8D8FB79324A32
:10209C00342101FB03F3134424331868FB792E4AD3
:1020AC00342101FB03F3134428331B880122194606
:1020BC00FEF7F6FF294B9B687B61294B1B68294A6D
:1020CC00A2FB03239A0C13469B001A44244B1B6857
:1020DC002449A1FB03139B0C5B08D31A3B611F4BD8
:1020EC009B687A69D31A3A699A42F8D8FB791A4AEA
:1020FC00342101FB03F3134424331868FB79164A8B
:10210C00342101FB03F3134428331B8800221946A6
:10211C00FEF7C6FF114B9B68FB60114B1B68114A05
:10212C00A2FB03239B0C642203FB02F20C4B1B68E7
:10213C000C49A1FB03139B0C5B08D31ABB60074B28
:10214C009B68FA68D31ABA689A42F8D800BF00BFE5
:10215C002037BD4680BD00BF8C31000810E000E088
:10216C000000002083DE1B4380B586B000AF034621
:10217C00FB71FB7900211846FFF736FFFB79012133
:10218C001846FFF731FF00237B611FE0134B9B6860
:10219C003B61134B1B68134AA2FB03239B0C4FF4AC
:1021AC007A7203FB02F20E4B1B680E49A1FB031360
:1021BC009B0C5B08D31AFB60084B9B683A69D31ADB
:1021CC00FA689A42F8D87B6901337B617B69012BF1
:1021DC00DCD900BF00BF1837BD4680BD10E000E061
:1021EC000000002083DE1B4380B584B000AF0346A3
:1021FC00FB710B46BB7113467B71BB79012B15D15F
:10220C007B797F33FB73FB7B1B09BB73FB7B03F07D
:10221C000F037B73BA7BFB7911461846FFF7E4FE7C
:10222C007A7BFB7911461846FFF7DEFEBB79022B51
:10223C0015D17B79413BFB73FB7B1B09BB73FB7B90
:10224C0003F00F037B73BA7BFB7911461846FFF73B
:10225C00CBFE7A7BFB7911461846FFF7C5FE00BF13
:10226C001037BD4680BD000080B58EB000AF034670
:10227C00FB7100BFFEF77EFC0346312BFAD9FB79CC
:10228C007C4A342101FB03F313442C331868FB798B
:10229C00784A342101FB03F3134430331B880022AA
:1022AC001946FEF7FDFEFB79724A342101FB03F35C
:1022BC00134424331868FB796E4A342101FB03F371
:1022CC00134428331B8800221946FEF7E9FEFB79DC
:1022DC0000211846FFF7C2FD00237B631FE0664B0D
:1022EC009B683B61654B1B68654AA2FB03239B0CF7
:1022FC004FF47A7203FB02F2604B1B686049A1FB3E
:10230C0003139B0C5B08D31AFB605B4B9B683A690D
:10231C00D31AFA689A42F8D87B6B01337B637B6BD8
:10232C00952BDCD9FB7903211846FFF75DFE0023C2
:10233C003B631FE0504B9B68BB61504B1B68504A82
:10234C00A2FB03239B0C4FF47A7203FB02F24B4B60
:10235C001B684B49A1FB03139B0C5B08D31A7B61D5
:10236C00454B9B68BA69D31A7A699A42F8D83B6B89
:10237C0001333B633B6B042BDCD9FB7903211846FF
:10238C00FFF732FE0023FB621FE03B4B9B683B6276
:10239C003A4B1B683A4AA2FB03239B0C4FF47A720C
:1023AC0003FB02F2354B1B683549A1FB03139B0C55
:1023BC005B08D31AFB61304B9B683A6AD31AFA69F3
:1023CC009A42F8D8FB6A0133FB62FB6A042BDCD916
:1023DC00FB7903211846FFF707FE274B9B68BB626E
:1023EC00264B1B68264AA2FB03239B0C962203FB5D
:1023FC0002F2224B1B682249A1FB03139B0C5B08C6
:10240C00D31A7B621C4B9B68BA6AD31A7A6A9A42BB
:10241C00F8D8FB7902211846FFF7E6FDFB7902217B
:10242C001846FFF7E1FDFB7908211846FFF7DCFDA4
:10243C00FB7900211846FFF7D7FDFB790C211846D4
:10244C00FFF7D2FDFB7900211846FFF7CDFDFB7994
:10245C0006211846FFF7C8FDFB7900211846FFF747
:10246C00C3FDFB7901211846FFF7BEFD00BF3837CD
:10247C00BD4680BD8C31000810E000E0000000205B
:10248C0083DE1B4380B590B000AF03460A46FB7158
:10249C001346BB71BB7903F00F0387F83F30BB7950
:1024AC0023F00F0387F83E30FB79A44A342101FB5B
:1024BC0003F313442C331868FB79A04A342101FB35
:1024CC0003F3134430331B8801221946FEF7E8FD51
:1024DC0097F83E301B09DAB2FB7911461846FFF724
:1024EC00BDFCFB79954A342101FB03F313442433DF
:1024FC001868FB79914A342101FB03F31344283308
:10250C001B8800221946FEF7CBFD8D4B9B68BB63E5
:10251C008C4B1B688C4AA2FB03239A0C13469B0022
:10252C001A44884B1B688849A1FB03139B0C5B085E
:10253C00D31A7B63824B9B68BA6BD31A7A6B9A4221
:10254C00F8D8FB797D4A342101FB03F3134424337F
:10255C001868FB79794A342101FB03F313442833BF
:10256C001B8801221946FEF79BFD754B9B683B634C
:10257C00744B1B68744AA2FB03239A0C13469B00F2
:10258C001A44704B1B687049A1FB03139B0C5B082E
:10259C00D31AFB626A4B9B683A6BD31AFA6A9A425B
:1025AC00F8D8FB79654A342101FB03F31344243337
:1025BC001868FB79614A342101FB03F31344283377
:1025CC001B8800221946FEF76BFD5D4B9B68BB62B6
:1025DC005C4B1B685C4AA2FB03239B0C642203FB31
:1025EC0002F2584B1B685849A1FB03139B0C5B0868
:1025FC00D31A7B62524B9B68BA6AD31A7A6A9A4294
:10260C00F8D897F83F20FB7911461846FFF726FCBF
:10261C00FB794A4A342101FB03F313442433186831
:10262C00FB79464A342101FB03F3134428331B88FE
:10263C0000221946FEF734FD414B9B683B62414B2F
:10264C001B68414AA2FB03239A0C13469B001A44B5
:10265C003C4B1B683C49A1FB03139B0C5B08D31A36
:10266C00FB61374B9B683A6AD31AFA699A42F8D8DD
:10267C00FB79324A342101FB03F3134424331868E9
:10268C00FB792E4A342101FB03F3134428331B88B6
:10269C0001221946FEF704FD294B9B68BB61294BAF
:1026AC001B68294AA2FB03239A0C13469B001A446D
:1026BC00244B1B682449A1FB03139B0C5B08D31A06
:1026CC007B611F4B9B68BA69D31A7A699A42F8D816
:1026DC00FB791A4A342101FB03F3134424331868A1
:1026EC00FB79164A342101FB03F3134428331B886E
:1026FC0000221946FEF7D4FC114B9B683B61114B31
:10270C001B68114AA2FB03239B0C642203FB02F2FD
:10271C000C4B1B680C49A1FB03139B0C5B08D31AD5
:10272C00FB60074B9B683A69D31AFA689A42F8D84F
:10273C0000BF00BF4037BD4680BD00BF8C310008D4
:10274C0010E000E00000002083DE1B4380B584B065
:10275C0000AF03463960FB710023FB600BE0FB68A4
:10276C003A6813441A78FB7911461846FFF78AFE2B
:10277C00FB680133FB60FB683A6813441B78002B41
:10278C00EDD100BF00BF1037BD4680BD0EB46FF059
:10279C00004110B500249DB01FAB0290069007912C
:1027AC0004910948094953F8042B0591006802A9C2
:1027BC0001931B9400F092F9029B1C701DB0BDE8B4
:1027CC00104003B0704700BF0C0000200802FFFF50
:1027DC0003460244934200D1704703F8011BF9E70A
:1027EC00014B1868704700BF0C00002070B5002624
:1027FC000C4D0D4C641BA410A64209D100F076FCC4
:10280C0000260A4D0A4C641BA410A64205D170BDCB
:10281C0055F8043B98470136EEE755F8043B9847CA
:10282C000136F2E7F4310008F4310008F431000805
:10283C00F83100087047704738B50546002940D07C
:10284C0051F8043C0C1F002BB8BFE41800F0DEF864
:10285C001C4A136833B9636014602846BDE83840DD
:10286C0000F0DAB8A34208D9206821188B4201BFC6
:10287C0019685B6809182160EDE71A465B680BB1B3
:10288C00A342FAD911685018A0420BD12068014418
:10289C00501883421160E0D118685B6808441060DE
:1028AC005360DAE702D90C232B60D6E72068211895
:1028BC008B4201BF19685B68091821606360546022
:1028CC00CBE738BD3002002070B50F4E0C46316896
:1028DC00054611B900F0A8FB30602146284600F0EF
:1028EC00A3FB431C03D14FF0FF34204670BDC41C26
:1028FC0024F00304A042F8D0211A284600F094FBDF
:10290C000130F2D1EFE700BF2C0200202DE9F84393
:10291C00CD1C25F0030508350C2D38BF0C25002DDA
:10292C00064601DBA94204D90C2333600020BDE824
:10293C00F883DFF8D48000F069F8D8F800301C4632
:10294C0044BB29463046FFF7BFFF431C044658D111
:10295C00D8F800402746002F43D1002C4BD02368D9
:10296C003946304604EB030900F05EFB814542D149
:10297C00216830466D1A2946FFF7A6FF01303AD080
:10298C0023682B442360D8F800305A6862BBC8F81F
:10299C0000700FE02268521B20D40B2A17D9611942
:1029AC00A342256018BF5960636808BFC8F80010BF
:1029BC0062514B60304600F02FF804F10B00231DE0
:1029CC0020F00700C21A1CBF1B1AA350AFE76268A5
:1029DC00A3420CBFC8F800205A60EBE7234664689A
:1029EC00AEE73C467F68B6E71A465B68A342FBD16C
:1029FC0000235360DEE70C233046336000F00CF804
:102A0C0094E70560D6E700BF300200200148FFF7CD
:102A1C0011BF00BF280200200148FFF70CBF00BF08
:102A2C00280200202DE9F0471F468E688246BE42E0
:102A3C000C4690460B682DD8B1F90C2012F4906F0F
:102A4C0026D06569096905EB4505A3EB010905EB82
:102A5C00D5757B1C4B446D109D4238BF1D465305EC
:102A6C0027D52946FFF752FF064660B34A4621692F
:102A7C0000F0F8FAA38923F4906343F08003A38158
:102A8C0026614E4426603E466561A5EB0905A560AE
:102A9C00BE4200D93E4632464146206800F0AAFAB2
:102AAC000020A3689B1BA360236833442360BDE80C
:102ABC00F0872A4600F0E4FA06460028E0D150469A
:102ACC002169FFF7B9FE0C23CAF80030A3894FF037
:102ADC00FF3043F04003A381E9E700002DE9F04FFC
:102AEC0098468B8907461B060D4614469DB010D59B
:102AFC000B6973B94021FFF709FF2860286130B9D1
:102B0C000C233B604FF0FF301DB0BDE8F08F40232D
:102B1C006B610023099320238DF8293030234FF06B
:102B2C000109CDF80C80DFF898818DF82A30234606
:102B3C009A4613F8012B0AB1252AF9D1BAEB040BEA
:102B4C000BD05B46224629463846FFF76BFF013017
:102B5C0000F0A780099A5A4409929AF80030002B89
:102B6C0000F09F8000234FF0FF32CDE905230AF1DE
:102B7C00010A049307938DF853301A935446052297
:102B8C0014F8011B4E4800F05FFA049AD8B9D0062D
:102B9C0044BF20238DF85330110744BF2B238DF8ED
:102BAC0053309AF800302A2B15D0544600204FF0A1
:102BBC000A0C079A214611F8013B303B092B4BD9E3
:102BCC00B0B1079214E0A0EB080309FA03F3134326
:102BDC00A2460493D2E7039B191D1B680391002B9B
:102BEC00BBBF5B4242F0020207930793B8BF04924B
:102BFC0023782E2B0AD163782A2B32D1039B0234F3
:102C0C001A1D1B68039243EAE3730593DFF8B4A023
:102C1C0003225046217800F017FA38B14022049B69
:102C2C00A0EB0A00824013430134049314F8011BF7
:102C3C00062225488DF8281000F006FA002836D018
:102C4C00224B1BBB039B073323F00703083303936F
:102C5C00099B334409936AE70C4601200CFB0232B2
:102C6C00A8E700234FF00A0C1946013405932046BF
:102C7C0010F8012B303A092A03D9002BC6D0059144
:102C8C00C4E7044601230CFB0121F0E703AB0093DE
:102C9C002A4638460E4B04A9AFF30080421C064668
:102CAC00D6D1AB895B063FF52DAF09982CE703AB6A
:102CBC0000932A463846064B04A900F07DF8EDE750
:102CCC00C0310008C6310008CA31000800000000FD
:102CDC00312A00082DE9F047164698468A680B6998
:102CEC0007469342B8BF1346336091F843200C4615
:102CFC00DDF820900AB1013333602368990642BF96
:102D0C00336802333360256815F0060506D104F1EB
:102D1C00190AE36832689B1AAB422BDC94F84330F7
:102D2C002268003B18BF0123920630D44146384636
:102D3C0004F14302C847013023D02368226903F011
:102D4C000603042B14BF002533684FF0000608BFA0
:102D5C00E56804F11A0408BFED1A54F8123C08BFD8
:102D6C0025EAE5759342C4BF9B1AED18B5421AD1FA
:102D7C00002008E00123524641463846C84701303E
:102D8C0003D14FF0FF30BDE8F0870135C1E73020AB
:102D9C00E11881F843005A1C94F845102244023380
:102DAC0082F84310C2E70123224641463846C84701
:102DBC000130E6D00136D9E72DE9FF470F7E914669
:102DCC00782F80460C469A460C9E01F1430207D898
:102DDC00622F0AD8002F00F0D180582F00F0B88055
:102DEC0004F1420684F842703AE0A7F16303152B14
:102DFC00F6D801A151F823F05D2E0008712E0008C1
:102E0C00ED2D0008ED2D0008ED2D0008ED2D00082E
:102E1C00712E0008ED2D0008ED2D0008ED2D000899
:102E2C00ED2D00086F2F00089B2E0008292F00089D
:102E3C00ED2D0008ED2D0008912F0008ED2D000858
:102E4C009B2E0008ED2D0008ED2D0008312F0008F9
:102E5C0033681A1D1B68326004F1420684F8423054
:102E6C0001239CE033682068191D3160060601D5EA
:102E7C001D6803E04506FBD5B3F90050002D03DABD
:102E8C002D236D4284F843300A23584811E0216801
:102E9C003368080653F8045B02D4490648BFADB248
:102EAC006F2F336014BF0A2308235048002184F885
:102EBC0043106668002EA66005DB21682E4321F0C6
:102ECC00040121604BD01646B5FBF3F103FB1157FF
:102EDC00C75D06F8017D2F46BB420D46F4D9082B81
:102EEC000BD12368DF0708D5236961689942DEBFDF
:102EFC00302306F8013C06F1FF36921B22614B464B
:102F0C0021464046CDF800A003AAFFF7E3FE0130AE
:102F1C004AD14FF0FF3004B0BDE8F087236843F08E
:102F2C00200323607827324884F845702368316881
:102F3C001F0651F8045B02D45F0648BFADB2316086
:102F4C00D90744BF43F0200323601DB11023ADE724
:102F5C002648E9E7236823F020032360F6E71646AA
:102F6C00BDE733682568181D616930602E061B6843
:102F7C0001D5196002E06806FBD5198000231646BE
:102F8C002361BCE7336800211A1D32601E68626839
:102F9C00304600F059F808B1801B6060636823610B
:102FAC00002384F84330AAE7324649464046236959
:102FBC00D0470130ADD023689B0713D4E068039B46
:102FCC009842B8BF1846A6E7012332464946404608
:102FDC00D04701309DD00135E36803995B1AAB42B1
:102FEC00F2DCEBE7002504F11906F5E7D131000816
:102FFC00E2310008884210B501EB020402D9844288
:10300C00234607D8431EA14208D011F8012B03F820
:10301C00012FF8E7014602448A4200D110BD13F893
:10302C00014D02F8014DF7E738B50023054D044674
:10303C0008462B60FDF7E4FC431C02D12B6803B15E
:10304C00236038BD24020020034610B5C9B20244E7
:10305C009342184601D1002003E0047801338C42DE
:10306C00F6D110BD0A44914200F1FF3300D17047F4
:10307C0010B511F8014B914203F8014FF9D110BD75
:10308C002DE9F041074614460D4621B91146BDE81D
:10309C00F041FFF73BBC2AB9FFF7CEFB254628468B
:1030AC00BDE8F08100F01AF88442064602D8B4EB71
:1030BC00500FF4D821463846FFF728FC804608B953
:1030CC004546ECE7B4422246294628BF3246FFF774
:1030DC00C9FF29463846FFF7AFFBF1E751F8043C2E
:1030EC00181F002BBCBF0B58C0187047F8B500BF99
:1030FC00F8BC08BC9E467047F8B500BFF8BC08BCCD
:04310C009E46704724
:103110002020416264616C6C61680000416264203F
:10312000456C2D42617365740000000025303258F3
:103130002025303258202530325820253032582072
:103140002530325800000000436172642055494424
:103150003A00000045525200506C616365204120E6
:1031600043617264202E2E00000000000000000069
:1031700001020304060708090203040506070809FB
:103180000A0B0C0D0E0F10100102000000000000D1
:10319000000C014001000000000C01400200000092
:1031A000000C014000040000000C01400008000079
:1031B0000008014002000000000801400400000077
:1031C000232D302B2000686C4C0065666745464710
:1031D0000030313233343536373839414243444593
:1031E0004600303132333435363738396162636402
:0431F0006566000010
:0431F400310100089D
:0431F8000D010008BD
:1031FC0000127A00100000000100000010000020F6
:10320C0000000000EC00002054010020BC01002054
:10321C0000000000000000000000000000000000A2
:10322C000000000000000000000000000000000092
:10323C000000000000000000000000000000000082
:0C324C0000000000000000000000000076
:0400000508000A8560
:00000001FF
